{
  "address": "0xD218Dc8ec615047EeCD80bd5E03a5FF66aC89e37",
  "abi": [
    {
      "inputs": [],
      "stateMutability": "nonpayable",
      "type": "constructor"
    },
    {
      "anonymous": false,
      "inputs": [
        {
          "indexed": true,
          "internalType": "address",
          "name": "player",
          "type": "address"
        },
        {
          "indexed": false,
          "internalType": "uint256",
          "name": "roomId",
          "type": "uint256"
        },
        {
          "indexed": false,
          "internalType": "bool",
          "name": "decision",
          "type": "bool"
        }
      ],
      "name": "DecisionMade",
      "type": "event"
    },
    {
      "anonymous": false,
      "inputs": [
        {
          "indexed": true,
          "internalType": "address",
          "name": "player1",
          "type": "address"
        },
        {
          "indexed": true,
          "internalType": "address",
          "name": "player2",
          "type": "address"
        },
        {
          "indexed": false,
          "internalType": "uint256",
          "name": "roomId",
          "type": "uint256"
        }
      ],
      "name": "GameStarted",
      "type": "event"
    },
    {
      "anonymous": false,
      "inputs": [
        {
          "indexed": true,
          "internalType": "address",
          "name": "player",
          "type": "address"
        },
        {
          "indexed": false,
          "internalType": "uint256",
          "name": "roomId",
          "type": "uint256"
        }
      ],
      "name": "PlayerJoined",
      "type": "event"
    },
    {
      "anonymous": false,
      "inputs": [
        {
          "indexed": false,
          "internalType": "uint256",
          "name": "roomId",
          "type": "uint256"
        },
        {
          "indexed": false,
          "internalType": "address",
          "name": "player1",
          "type": "address"
        },
        {
          "indexed": false,
          "internalType": "address",
          "name": "player2",
          "type": "address"
        }
      ],
      "name": "RewardsDistributed",
      "type": "event"
    },
    {
      "anonymous": false,
      "inputs": [
        {
          "indexed": false,
          "internalType": "uint256",
          "name": "roomId",
          "type": "uint256"
        },
        {
          "indexed": false,
          "internalType": "address",
          "name": "player",
          "type": "address"
        }
      ],
      "name": "RoomCreated",
      "type": "event"
    },
    {
      "anonymous": false,
      "inputs": [
        {
          "indexed": false,
          "internalType": "uint256",
          "name": "roomId",
          "type": "uint256"
        }
      ],
      "name": "RoundReset",
      "type": "event"
    },
    {
      "inputs": [],
      "name": "entryFee",
      "outputs": [
        {
          "internalType": "uint256",
          "name": "",
          "type": "uint256"
        }
      ],
      "stateMutability": "view",
      "type": "function"
    },
    {
      "inputs": [],
      "name": "getContractBalance",
      "outputs": [
        {
          "internalType": "uint256",
          "name": "",
          "type": "uint256"
        }
      ],
      "stateMutability": "view",
      "type": "function"
    },
    {
      "inputs": [],
      "name": "getPlayers",
      "outputs": [
        {
          "internalType": "address[]",
          "name": "",
          "type": "address[]"
        },
        {
          "internalType": "uint256[]",
          "name": "",
          "type": "uint256[]"
        },
        {
          "internalType": "uint256[]",
          "name": "",
          "type": "uint256[]"
        },
        {
          "internalType": "bool[]",
          "name": "",
          "type": "bool[]"
        },
        {
          "internalType": "bool[]",
          "name": "",
          "type": "bool[]"
        },
        {
          "internalType": "bool[]",
          "name": "",
          "type": "bool[]"
        },
        {
          "internalType": "uint256[]",
          "name": "",
          "type": "uint256[]"
        }
      ],
      "stateMutability": "view",
      "type": "function"
    },
    {
      "inputs": [],
      "name": "getPlayersByRooms",
      "outputs": [
        {
          "internalType": "address[]",
          "name": "",
          "type": "address[]"
        },
        {
          "internalType": "uint256[]",
          "name": "",
          "type": "uint256[]"
        },
        {
          "internalType": "uint256[]",
          "name": "",
          "type": "uint256[]"
        },
        {
          "internalType": "bool[]",
          "name": "",
          "type": "bool[]"
        }
      ],
      "stateMutability": "view",
      "type": "function"
    },
    {
      "inputs": [],
      "name": "getRanking",
      "outputs": [
        {
          "internalType": "address[]",
          "name": "",
          "type": "address[]"
        },
        {
          "internalType": "uint256[]",
          "name": "",
          "type": "uint256[]"
        }
      ],
      "stateMutability": "view",
      "type": "function"
    },
    {
      "inputs": [],
      "name": "joinGame",
      "outputs": [],
      "stateMutability": "payable",
      "type": "function"
    },
    {
      "inputs": [
        {
          "internalType": "bool",
          "name": "decision",
          "type": "bool"
        }
      ],
      "name": "makeDecision",
      "outputs": [],
      "stateMutability": "nonpayable",
      "type": "function"
    },
    {
      "inputs": [],
      "name": "owner",
      "outputs": [
        {
          "internalType": "address",
          "name": "",
          "type": "address"
        }
      ],
      "stateMutability": "view",
      "type": "function"
    },
    {
      "inputs": [
        {
          "internalType": "address",
          "name": "",
          "type": "address"
        }
      ],
      "name": "players",
      "outputs": [
        {
          "internalType": "uint256",
          "name": "balance",
          "type": "uint256"
        },
        {
          "internalType": "uint256",
          "name": "score",
          "type": "uint256"
        },
        {
          "internalType": "bool",
          "name": "inGame",
          "type": "bool"
        },
        {
          "internalType": "bool",
          "name": "decision",
          "type": "bool"
        },
        {
          "internalType": "bool",
          "name": "decided",
          "type": "bool"
        },
        {
          "internalType": "uint256",
          "name": "currentRoom",
          "type": "uint256"
        }
      ],
      "stateMutability": "view",
      "type": "function"
    },
    {
      "inputs": [
        {
          "internalType": "uint256",
          "name": "",
          "type": "uint256"
        }
      ],
      "name": "rooms",
      "outputs": [
        {
          "internalType": "address",
          "name": "player1",
          "type": "address"
        },
        {
          "internalType": "address",
          "name": "player2",
          "type": "address"
        },
        {
          "internalType": "bool",
          "name": "active",
          "type": "bool"
        },
        {
          "internalType": "uint256",
          "name": "roundEnd",
          "type": "uint256"
        }
      ],
      "stateMutability": "view",
      "type": "function"
    },
    {
      "inputs": [],
      "name": "roundDuration",
      "outputs": [
        {
          "internalType": "uint256",
          "name": "",
          "type": "uint256"
        }
      ],
      "stateMutability": "view",
      "type": "function"
    },
    {
      "inputs": [],
      "name": "withdraw",
      "outputs": [],
      "stateMutability": "nonpayable",
      "type": "function"
    }
  ],
  "transactionHash": "0xee5c7df44ad7ad736fe4fa82173c3c815dddd0e7454a01abe1e23f65d9167f24",
  "args": [],
  "numDeployments": 2,
  "solcInputHash": "3a12b51a40742bc2cb942ca5d1cabf2b",
  "bytecode": "0x6080604052633b9aca00600055603c60015534801561001d57600080fd5b50600280546001600160a01b031916331790556129528061003f6000396000f3fe6080604052600436106100a75760003560e01c80638b5b9ccc116100645780638b5b9ccc146101985780638da5cb5b146101c0578063d4f77b1c146101f8578063dfa1ba3514610200578063e2eb41ff14610220578063f7cb789a146102b057600080fd5b8063072ea61c146100ac5780631398bbf7146100d55780631bae0ac8146100f85780633ccfd60b146101495780636f9fb98a146101605780637418cdb514610173575b600080fd5b3480156100b857600080fd5b506100c260005481565b6040519081526020015b60405180910390f35b3480156100e157600080fd5b506100ea6102c6565b6040516100cc9291906126a2565b34801561010457600080fd5b506101186101133660046126d0565b610887565b604080516001600160a01b0395861681529490931660208501529015159183019190915260608201526080016100cc565b34801561015557600080fd5b5061015e6108d3565b005b34801561016c57600080fd5b50476100c2565b34801561017f57600080fd5b50610188610b63565b6040516100cc949392919061271b565b3480156101a457600080fd5b506101ad6110b7565b6040516100cc9796959493929190612773565b3480156101cc57600080fd5b506002546101e0906001600160a01b031681565b6040516001600160a01b0390911681526020016100cc565b61015e611a1a565b34801561020c57600080fd5b5061015e61021b36600461280a565b611b61565b34801561022c57600080fd5b5061027b61023b366004612833565b6003602081905260009182526040909120805460018201546002830154929093015490929160ff8082169261010083048216926201000090049091169086565b6040805196875260208701959095529215159385019390935215156060840152901515608083015260a082015260c0016100cc565b3480156102bc57600080fd5b506100c260015481565b6060806000805b6004548110156103825760006001600160a01b0316600482815481106102f5576102f561285c565b60009182526020909120600390910201546001600160a01b031614610322578161031e81612888565b9250505b60006001600160a01b0316600482815481106103405761034061285c565b60009182526020909120600160039092020101546001600160a01b031614610370578161036c81612888565b9250505b8061037a81612888565b9150506102cd565b506000816001600160401b0381111561039d5761039d6128a1565b6040519080825280602002602001820160405280156103c6578160200160208202803683370190505b5090506000826001600160401b038111156103e3576103e36128a1565b60405190808252806020026020018201604052801561040c578160200160208202803683370190505b509050600080846001600160401b0381111561042a5761042a6128a1565b604051908082528060200260200182016040528015610453578160200160208202803683370190505b50905060005b6004548110156108795760006001600160a01b0316600482815481106104815761048161285c565b60009182526020909120600390910201546001600160a01b03161461065b576000805b8481101561052157600483815481106104bf576104bf61285c565b600091825260209091206003909102015484516001600160a01b03909116908590839081106104f0576104f061285c565b60200260200101516001600160a01b03160361050f5760019150610521565b8061051981612888565b9150506104a4565b5080610659576004828154811061053a5761053a61285c565b600091825260209091206003909102015486516001600160a01b039091169087908690811061056b5761056b61285c565b60200260200101906001600160a01b031690816001600160a01b03168152505060036000600484815481106105a2576105a261285c565b600091825260208083206003909202909101546001600160a01b0316835282019290925260400190206001015485518690869081106105e3576105e361285c565b602002602001018181525050600482815481106106025761060261285c565b600091825260209091206003909102015483516001600160a01b03909116908490869081106106335761063361285c565b6001600160a01b03909216602092830291909101909101528361065581612888565b9450505b505b60006001600160a01b0316600482815481106106795761067961285c565b60009182526020909120600160039092020101546001600160a01b031614610867576000805b8481101561071f57600483815481106106ba576106ba61285c565b600091825260209091206001600390920201015484516001600160a01b03909116908590839081106106ee576106ee61285c565b60200260200101516001600160a01b03160361070d576001915061071f565b8061071781612888565b91505061069f565b508061086557600482815481106107385761073861285c565b906000526020600020906003020160010160009054906101000a90046001600160a01b031686858151811061076f5761076f61285c565b60200260200101906001600160a01b031690816001600160a01b03168152505060036000600484815481106107a6576107a661285c565b6000918252602080832060016003909302018201546001600160a01b0316845283019390935260409091019020015485518690869081106107e9576107e961285c565b602002602001018181525050600482815481106108085761080861285c565b906000526020600020906003020160010160009054906101000a90046001600160a01b031683858151811061083f5761083f61285c565b6001600160a01b03909216602092830291909101909101528361086181612888565b9450505b505b8061087181612888565b915050610459565b509296919550909350505050565b6004818154811061089757600080fd5b60009182526020909120600390910201805460018201546002909201546001600160a01b03918216935090821691600160a01b900460ff169084565b3360009081526003602052604090206002015460ff166109345760405162461bcd60e51b81526020600482015260176024820152762737ba1030903932b3b4b9ba32b932b210383630bcb2b960491b60448201526064015b60405180910390fd5b336000908152600360205260409020548061098a5760405162461bcd60e51b81526020600482015260166024820152754e6f2062616c616e636520746f20776974686472617760501b604482015260640161092b565b336000818152600360208190526040909120015460048054919291839081106109b5576109b561285c565b60009182526020909120600390910201546001600160a01b031603610a1c576000600482815481106109e9576109e961285c565b6000918252602090912060039091020180546001600160a01b0319166001600160a01b0392909216919091179055610aa6565b336001600160a01b031660048281548110610a3957610a3961285c565b60009182526020909120600160039092020101546001600160a01b031603610aa657600060048281548110610a7057610a7061285c565b906000526020600020906003020160010160006101000a8154816001600160a01b0302191690836001600160a01b031602179055505b3360008181526003602081905260408083208381556001810184905560028101805462ffffff191690559091018290555190919084908381818185875af1925050503d8060008114610b14576040519150601f19603f3d011682016040523d82523d6000602084013e610b19565b606091505b5050905080610b5e5760405162461bcd60e51b815260206004820152601160248201527015da5d1a191c985dd85b0819985a5b1959607a1b604482015260640161092b565b505050565b6060806060806000805b600454811015610c225760006001600160a01b031660048281548110610b9557610b9561285c565b60009182526020909120600390910201546001600160a01b031614610bc25781610bbe81612888565b9250505b60006001600160a01b031660048281548110610be057610be061285c565b60009182526020909120600160039092020101546001600160a01b031614610c105781610c0c81612888565b9250505b80610c1a81612888565b915050610b6d565b506000816001600160401b03811115610c3d57610c3d6128a1565b604051908082528060200260200182016040528015610c66578160200160208202803683370190505b5090506000826001600160401b03811115610c8357610c836128a1565b604051908082528060200260200182016040528015610cac578160200160208202803683370190505b5090506000836001600160401b03811115610cc957610cc96128a1565b604051908082528060200260200182016040528015610cf2578160200160208202803683370190505b5090506000846001600160401b03811115610d0f57610d0f6128a1565b604051908082528060200260200182016040528015610d38578160200160208202803683370190505b5090506000805b6004548110156110a65760006001600160a01b031660048281548110610d6757610d6761285c565b60009182526020909120600390910201546001600160a01b031614610ee65760048181548110610d9957610d9961285c565b600091825260209091206003909102015486516001600160a01b0390911690879084908110610dca57610dca61285c565b60200260200101906001600160a01b031690816001600160a01b0316815250506003600060048381548110610e0157610e0161285c565b600091825260208083206003909202909101546001600160a01b031683528201929092526040019020548551869084908110610e3f57610e3f61285c565b60200260200101818152505080848381518110610e5e57610e5e61285c565b6020026020010181815250506003600060048381548110610e8157610e8161285c565b600091825260208083206003909202909101546001600160a01b03168352820192909252604001902060020154835160ff90911690849084908110610ec857610ec861285c565b9115156020928302919091019091015281610ee281612888565b9250505b60006001600160a01b031660048281548110610f0457610f0461285c565b60009182526020909120600160039092020101546001600160a01b0316146110945760048181548110610f3957610f3961285c565b906000526020600020906003020160010160009054906101000a90046001600160a01b0316868381518110610f7057610f7061285c565b60200260200101906001600160a01b031690816001600160a01b0316815250506003600060048381548110610fa757610fa761285c565b60009182526020808320600160039093020191909101546001600160a01b031683528201929092526040019020548551869084908110610fe957610fe961285c565b602002602001018181525050808483815181106110085761100861285c565b602002602001018181525050600360006004838154811061102b5761102b61285c565b60009182526020808320600160039093020191909101546001600160a01b03168352820192909252604001902060020154835160ff909116908490849081106110765761107661285c565b911515602092830291909101909101528161109081612888565b9250505b8061109e81612888565b915050610d3f565b509399929850909650945092505050565b60608060608060608060606000805b60045481101561117b5760006001600160a01b0316600482815481106110ee576110ee61285c565b60009182526020909120600390910201546001600160a01b03161461111b578161111781612888565b9250505b60006001600160a01b0316600482815481106111395761113961285c565b60009182526020909120600160039092020101546001600160a01b031614611169578161116581612888565b9250505b8061117381612888565b9150506110c6565b506000816001600160401b03811115611196576111966128a1565b6040519080825280602002602001820160405280156111bf578160200160208202803683370190505b5090506000826001600160401b038111156111dc576111dc6128a1565b604051908082528060200260200182016040528015611205578160200160208202803683370190505b5090506000836001600160401b03811115611222576112226128a1565b60405190808252806020026020018201604052801561124b578160200160208202803683370190505b5090506000846001600160401b03811115611268576112686128a1565b604051908082528060200260200182016040528015611291578160200160208202803683370190505b5090506000856001600160401b038111156112ae576112ae6128a1565b6040519080825280602002602001820160405280156112d7578160200160208202803683370190505b5090506000866001600160401b038111156112f4576112f46128a1565b60405190808252806020026020018201604052801561131d578160200160208202803683370190505b5090506000876001600160401b0381111561133a5761133a6128a1565b604051908082528060200260200182016040528015611363578160200160208202803683370190505b5090506000805b600454811015611a025760006001600160a01b0316600482815481106113925761139261285c565b60009182526020909120600390910201546001600160a01b0316146116a457600481815481106113c4576113c461285c565b600091825260209091206003909102015489516001600160a01b03909116908a90849081106113f5576113f561285c565b60200260200101906001600160a01b031690816001600160a01b031681525050600360006004838154811061142c5761142c61285c565b600091825260208083206003909202909101546001600160a01b03168352820192909252604001902054885189908490811061146a5761146a61285c565b602002602001018181525050600360006004838154811061148d5761148d61285c565b600091825260208083206003909202909101546001600160a01b0316835282019290925260400190206001015487518890849081106114ce576114ce61285c565b60200260200101818152505060036000600483815481106114f1576114f161285c565b600091825260208083206003909202909101546001600160a01b03168352820192909252604001902060020154865160ff909116908790849081106115385761153861285c565b60200260200101901515908115158152505060036000600483815481106115615761156161285c565b60009182526020808320600392909202909101546001600160a01b03168352820192909252604001902060020154855161010090910460ff16908690849081106115ad576115ad61285c565b60200260200101901515908115158152505060036000600483815481106115d6576115d661285c565b60009182526020808320600392909202909101546001600160a01b0316835282019290925260400190206002015484516201000090910460ff16908590849081106116235761162361285c565b602002602001019015159081151581525050600360006004838154811061164c5761164c61285c565b60009182526020808320600392830201546001600160a01b03168452830193909352604090910190200154835184908490811061168b5761168b61285c565b6020908102919091010152816116a081612888565b9250505b60006001600160a01b0316600482815481106116c2576116c261285c565b60009182526020909120600160039092020101546001600160a01b0316146119f057600481815481106116f7576116f761285c565b906000526020600020906003020160010160009054906101000a90046001600160a01b031689838151811061172e5761172e61285c565b60200260200101906001600160a01b031690816001600160a01b03168152505060036000600483815481106117655761176561285c565b60009182526020808320600160039093020191909101546001600160a01b0316835282019290925260400190205488518990849081106117a7576117a761285c565b60200260200101818152505060036000600483815481106117ca576117ca61285c565b6000918252602080832060016003909302018201546001600160a01b03168452830193909352604090910190200154875188908490811061180d5761180d61285c565b60200260200101818152505060036000600483815481106118305761183061285c565b60009182526020808320600160039093020191909101546001600160a01b03168352820192909252604001902060020154865160ff9091169087908490811061187b5761187b61285c565b60200260200101901515908115158152505060036000600483815481106118a4576118a461285c565b60009182526020808320600392909202909101600101546001600160a01b03168352820192909252604001902060020154855161010090910460ff16908690849081106118f3576118f361285c565b602002602001019015159081151581525050600360006004838154811061191c5761191c61285c565b60009182526020808320600392909202909101600101546001600160a01b0316835282019290925260400190206002015484516201000090910460ff169085908490811061196c5761196c61285c565b60200260200101901515908115158152505060036000600483815481106119955761199561285c565b60009182526020808320600392830201600101546001600160a01b0316845283019390935260409091019020015483518490849081106119d7576119d761285c565b6020908102919091010152816119ec81612888565b9250505b806119fa81612888565b91505061136a565b50969f959e50939c50919a5098509650945092505050565b6000543414611a6b5760405162461bcd60e51b815260206004820152601860248201527f4d7573742073656e642065786163746c79203120677765690000000000000000604482015260640161092b565b3360009081526003602052604090206002015460ff1615611ac05760405162461bcd60e51b815260206004820152600f60248201526e416c726561647920696e2067616d6560881b604482015260640161092b565b6040805160c08101825234808252602080830191825260018385018181526000606086018181526080870182815260a08801838152338452600396879052989092209651875594519286019290925551600285018054945192511515620100000262ff0000199315156101000261ff00199315159390931661ffff19909616959095179190911791909116929092179091559151910155611b5f611dfd565b565b3360009081526003602052604090206002015460ff16611bbd5760405162461bcd60e51b81526020600482015260176024820152762737ba1030903932b3b4b9ba32b932b210383630bcb2b960491b604482015260640161092b565b33600090815260036020819052604090912001546004548110611c115760405162461bcd60e51b815260206004820152600c60248201526b496e76616c696420726f6f6d60a01b604482015260640161092b565b600060048281548110611c2657611c2661285c565b906000526020600020906003020190508060010160149054906101000a900460ff16611c895760405162461bcd60e51b8152602060048201526012602482015271526f6f6d206973206e6f742061637469766560701b604482015260640161092b565b8060020154421115611ccf5760405162461bcd60e51b815260206004820152600f60248201526e149bdd5b99081a185cc8195b991959608a1b604482015260640161092b565b80546001600160a01b03163303611d1657336000908152600360205260409020600201805462ff000019851515610100021662ffff00199091161762010000179055611d5c565b60018101546001600160a01b03163303611d5c57336000908152600360205260409020600201805462ff000019851515610100021662ffff001990911617620100001790555b60408051838152841515602082015233917fffc2c3a84b9638d11fab78bc1baf1bef56e1173cb2c3cf0427f466dbc1f8e048910160405180910390a280546001600160a01b031660009081526003602052604090206002015462010000900460ff168015611def575060018101546001600160a01b031660009081526003602052604090206002015462010000900460ff165b15610b5e57610b5e826121f9565b60005b6004548110156120d25760048181548110611e1d57611e1d61285c565b906000526020600020906003020160010160149054906101000a900460ff168015611ebf575060006001600160a01b031660048281548110611e6157611e6161285c565b60009182526020909120600390910201546001600160a01b03161480611ebf575060006001600160a01b031660048281548110611ea057611ea061285c565b60009182526020909120600160039092020101546001600160a01b0316145b156120c05760006001600160a01b031660048281548110611ee257611ee261285c565b60009182526020909120600390910201546001600160a01b031603611f48573360048281548110611f1557611f1561285c565b6000918252602090912060039091020180546001600160a01b0319166001600160a01b039290921691909117905561205e565b3360048281548110611f5c57611f5c61285c565b906000526020600020906003020160010160006101000a8154816001600160a01b0302191690836001600160a01b0316021790555060015442611f9f91906128b7565b60048281548110611fb257611fb261285c565b90600052602060002090600302016002018190555060048181548110611fda57611fda61285c565b6000918252602090912060016003909202010154600480546001600160a01b03909216918390811061200e5761200e61285c565b6000918252602091829020600390910201546040518481526001600160a01b03909116917fee0dca10a9957dad74da3fe318a3ccc561c46d96be0ab0b66e7aff32aab94cf3910160405180910390a35b33600081815260036020819052604091829020908101849055600201805460ff19166001179055517f3330a6773675f31f62070870f40379f8c6d42e3761410011a4dfc42b18043d2f906120b59084815260200190565b60405180910390a250565b806120ca81612888565b915050611e00565b5060408051608081018252338152600060208201526001918101829052905460049190606082019061210490426128b7565b905281546001808201845560009384526020808520845160039094020180546001600160a01b0319166001600160a01b039485161781559084015181830180546040870151929095166001600160a81b031990951694909417600160a01b911515919091021790925560609092015160029091015560045461218691906128d0565b33600081815260036020819052604091829020908101849055600201805460ff19166001179055519192507fdeb4915464f2fab35f9ed95b8c2dc62a1af9edc45ebc42643517a7893e49bca8916121ee918482526001600160a01b0316602082015260400190565b60405180910390a150565b60006004828154811061220e5761220e61285c565b6000918252602080832060039283020180546001600160a01b039081168552929091526040808420600183015490931684529092206002830154929350909142111561243957600282015462010000900460ff166123215760028201805460ff19169055825482546040516000926001600160a01b031691908381818185875af1925050503d80600081146122bf576040519150601f19603f3d011682016040523d82523d6000602084013e6122c4565b606091505b50509050806123155760405162461bcd60e51b815260206004820152601860248201527f526566756e6420746f20706c6179657231206661696c65640000000000000000604482015260640161092b565b50600080835560018301555b600281015462010000900460ff166123f15760028101805460ff19169055600183015481546040516000926001600160a01b031691908381818185875af1925050503d806000811461238f576040519150601f19603f3d011682016040523d82523d6000602084013e612394565b606091505b50509050806123e55760405162461bcd60e51b815260206004820152601860248201527f526566756e6420746f20706c6179657232206661696c65640000000000000000604482015260640161092b565b50600080825560018201555b60018301805460ff60a01b191690556040518481527fa14e030bc63f5404d974bacfb0984480dc43ee50f5ffb6b6e7364356ee147f0b9060200160405180910390a150505050565b6002820154610100900460ff16801561245b57506002810154610100900460ff165b1561249d578154600a906124709060096128e3565b61247a91906128fa565b82558054600a9061248c9060096128e3565b61249691906128fa565b8155612596565b6002820154610100900460ff161580156124c057506002810154610100900460ff165b15612509578054600090600a906124d89060066128e3565b6124e291906128fa565b82549091506124f29082906128d0565b825582546125019082906128b7565b835550612596565b6002820154610100900460ff16801561252c57506002810154610100900460ff16155b15612575578154600090600a906125449060066128e3565b61254e91906128fa565b835490915061255e9082906128d0565b8355815461256d9082906128b7565b825550612596565b8154612583906002906128fa565b82558054612593906002906128fa565b81555b81546001808401919091558154828201556002808401805462ff00001990811690915590830180549091169055835490840154604080518781526001600160a01b0393841660208201529290911682820152517f5392ae4fa3d987f8e2f4331447a7f072cd7645bd0e6fa7ca44597e01b3b15f239181900360600190a160015461262090426128b7565b836002018190555050505050565b600081518084526020808501945080840160005b838110156126675781516001600160a01b031687529582019590820190600101612642565b509495945050505050565b600081518084526020808501945080840160005b8381101561266757815187529582019590820190600101612686565b6040815260006126b5604083018561262e565b82810360208401526126c78185612672565b95945050505050565b6000602082840312156126e257600080fd5b5035919050565b600081518084526020808501945080840160005b838110156126675781511515875295820195908201906001016126fd565b60808152600061272e608083018761262e565b82810360208401526127408187612672565b905082810360408401526127548186612672565b9050828103606084015261276881856126e9565b979650505050505050565b60e08152600061278660e083018a61262e565b8281036020840152612798818a612672565b905082810360408401526127ac8189612672565b905082810360608401526127c081886126e9565b905082810360808401526127d481876126e9565b905082810360a08401526127e881866126e9565b905082810360c08401526127fc8185612672565b9a9950505050505050505050565b60006020828403121561281c57600080fd5b8135801515811461282c57600080fd5b9392505050565b60006020828403121561284557600080fd5b81356001600160a01b038116811461282c57600080fd5b634e487b7160e01b600052603260045260246000fd5b634e487b7160e01b600052601160045260246000fd5b60006001820161289a5761289a612872565b5060010190565b634e487b7160e01b600052604160045260246000fd5b808201808211156128ca576128ca612872565b92915050565b818103818111156128ca576128ca612872565b80820281158282048414176128ca576128ca612872565b60008261291757634e487b7160e01b600052601260045260246000fd5b50049056fea26469706673582212208a8319a4ff975a082dcf9c789ce3483e2643d0a17d86a532bb776cbe755d6c2e64736f6c63430008110033",
  "devdoc": {
    "kind": "dev",
    "methods": {},
    "version": 1
  },
  "userdoc": {
    "kind": "user",
    "methods": {},
    "version": 1
  },
  "storageLayout": {
    "storage": [
      {
        "astId": 4,
        "contract": "contracts/PrisionersDilemma.sol:PrisonersDilemma",
        "label": "entryFee",
        "offset": 0,
        "slot": "0",
        "type": "t_uint256"
      },
      {
        "astId": 7,
        "contract": "contracts/PrisionersDilemma.sol:PrisonersDilemma",
        "label": "roundDuration",
        "offset": 0,
        "slot": "1",
        "type": "t_uint256"
      },
      {
        "astId": 9,
        "contract": "contracts/PrisionersDilemma.sol:PrisonersDilemma",
        "label": "owner",
        "offset": 0,
        "slot": "2",
        "type": "t_address"
      },
      {
        "astId": 36,
        "contract": "contracts/PrisionersDilemma.sol:PrisonersDilemma",
        "label": "players",
        "offset": 0,
        "slot": "3",
        "type": "t_mapping(t_address,t_struct(Player)22_storage)"
      },
      {
        "astId": 40,
        "contract": "contracts/PrisionersDilemma.sol:PrisonersDilemma",
        "label": "rooms",
        "offset": 0,
        "slot": "4",
        "type": "t_array(t_struct(Room)31_storage)dyn_storage"
      }
    ],
    "types": {
      "t_address": {
        "encoding": "inplace",
        "label": "address",
        "numberOfBytes": "20"
      },
      "t_array(t_struct(Room)31_storage)dyn_storage": {
        "base": "t_struct(Room)31_storage",
        "encoding": "dynamic_array",
        "label": "struct PrisonersDilemma.Room[]",
        "numberOfBytes": "32"
      },
      "t_bool": {
        "encoding": "inplace",
        "label": "bool",
        "numberOfBytes": "1"
      },
      "t_mapping(t_address,t_struct(Player)22_storage)": {
        "encoding": "mapping",
        "key": "t_address",
        "label": "mapping(address => struct PrisonersDilemma.Player)",
        "numberOfBytes": "32",
        "value": "t_struct(Player)22_storage"
      },
      "t_struct(Player)22_storage": {
        "encoding": "inplace",
        "label": "struct PrisonersDilemma.Player",
        "members": [
          {
            "astId": 11,
            "contract": "contracts/PrisionersDilemma.sol:PrisonersDilemma",
            "label": "balance",
            "offset": 0,
            "slot": "0",
            "type": "t_uint256"
          },
          {
            "astId": 13,
            "contract": "contracts/PrisionersDilemma.sol:PrisonersDilemma",
            "label": "score",
            "offset": 0,
            "slot": "1",
            "type": "t_uint256"
          },
          {
            "astId": 15,
            "contract": "contracts/PrisionersDilemma.sol:PrisonersDilemma",
            "label": "inGame",
            "offset": 0,
            "slot": "2",
            "type": "t_bool"
          },
          {
            "astId": 17,
            "contract": "contracts/PrisionersDilemma.sol:PrisonersDilemma",
            "label": "decision",
            "offset": 1,
            "slot": "2",
            "type": "t_bool"
          },
          {
            "astId": 19,
            "contract": "contracts/PrisionersDilemma.sol:PrisonersDilemma",
            "label": "decided",
            "offset": 2,
            "slot": "2",
            "type": "t_bool"
          },
          {
            "astId": 21,
            "contract": "contracts/PrisionersDilemma.sol:PrisonersDilemma",
            "label": "currentRoom",
            "offset": 0,
            "slot": "3",
            "type": "t_uint256"
          }
        ],
        "numberOfBytes": "128"
      },
      "t_struct(Room)31_storage": {
        "encoding": "inplace",
        "label": "struct PrisonersDilemma.Room",
        "members": [
          {
            "astId": 24,
            "contract": "contracts/PrisionersDilemma.sol:PrisonersDilemma",
            "label": "player1",
            "offset": 0,
            "slot": "0",
            "type": "t_address"
          },
          {
            "astId": 26,
            "contract": "contracts/PrisionersDilemma.sol:PrisonersDilemma",
            "label": "player2",
            "offset": 0,
            "slot": "1",
            "type": "t_address"
          },
          {
            "astId": 28,
            "contract": "contracts/PrisionersDilemma.sol:PrisonersDilemma",
            "label": "active",
            "offset": 20,
            "slot": "1",
            "type": "t_bool"
          },
          {
            "astId": 30,
            "contract": "contracts/PrisionersDilemma.sol:PrisonersDilemma",
            "label": "roundEnd",
            "offset": 0,
            "slot": "2",
            "type": "t_uint256"
          }
        ],
        "numberOfBytes": "96"
      },
      "t_uint256": {
        "encoding": "inplace",
        "label": "uint256",
        "numberOfBytes": "32"
      }
    }
  }
}